{
  "_format": "hh-sol-artifact-1",
  "contractName": "TokenizedBallot",
  "sourceName": "contracts/TokenizedBallot.sol",
  "abi": [
    {
      "inputs": [
        {
          "internalType": "bytes32[]",
          "name": "proposalNames",
          "type": "bytes32[]"
        },
        {
          "internalType": "contract IERC20Token",
          "name": "_tokenContract",
          "type": "address"
        },
        {
          "internalType": "uint256",
          "name": "_targetBlockNumber",
          "type": "uint256"
        }
      ],
      "stateMutability": "nonpayable",
      "type": "constructor"
    },
    {
      "inputs": [
        {
          "internalType": "address",
          "name": "voter",
          "type": "address"
        }
      ],
      "name": "getVotePower",
      "outputs": [
        {
          "internalType": "uint256",
          "name": "votePower_",
          "type": "uint256"
        }
      ],
      "stateMutability": "view",
      "type": "function"
    },
    {
      "inputs": [
        {
          "internalType": "uint256",
          "name": "",
          "type": "uint256"
        }
      ],
      "name": "proposals",
      "outputs": [
        {
          "internalType": "bytes32",
          "name": "name",
          "type": "bytes32"
        },
        {
          "internalType": "uint256",
          "name": "voteCount",
          "type": "uint256"
        }
      ],
      "stateMutability": "view",
      "type": "function"
    },
    {
      "inputs": [
        {
          "internalType": "address",
          "name": "",
          "type": "address"
        }
      ],
      "name": "spendVotePower",
      "outputs": [
        {
          "internalType": "uint256",
          "name": "",
          "type": "uint256"
        }
      ],
      "stateMutability": "view",
      "type": "function"
    },
    {
      "inputs": [],
      "name": "targetBlockNumber",
      "outputs": [
        {
          "internalType": "uint256",
          "name": "",
          "type": "uint256"
        }
      ],
      "stateMutability": "view",
      "type": "function"
    },
    {
      "inputs": [],
      "name": "tokenContract",
      "outputs": [
        {
          "internalType": "contract IERC20Token",
          "name": "",
          "type": "address"
        }
      ],
      "stateMutability": "view",
      "type": "function"
    },
    {
      "inputs": [
        {
          "internalType": "uint256",
          "name": "proposal",
          "type": "uint256"
        },
        {
          "internalType": "uint256",
          "name": "amount",
          "type": "uint256"
        }
      ],
      "name": "vote",
      "outputs": [],
      "stateMutability": "nonpayable",
      "type": "function"
    },
    {
      "inputs": [],
      "name": "winnerName",
      "outputs": [
        {
          "internalType": "bytes32",
          "name": "winnerName_",
          "type": "bytes32"
        }
      ],
      "stateMutability": "view",
      "type": "function"
    },
    {
      "inputs": [],
      "name": "winningProposal",
      "outputs": [
        {
          "internalType": "uint256",
          "name": "winningProposal_",
          "type": "uint256"
        }
      ],
      "stateMutability": "view",
      "type": "function"
    }
  ],
  "bytecode": "0x60806040523480156200001157600080fd5b5060405162000d5038038062000d50833981810160405281019062000037919062000390565b81600160006101000a81548173ffffffffffffffffffffffffffffffffffffffff021916908373ffffffffffffffffffffffffffffffffffffffff1602179055508060028190555060005b83518110156200010e5760006040518060400160405280868481518110620000af57620000ae6200040b565b5b602002602001015181526020016000815250908060018154018082558091505060019003906000526020600020906002020160009091909190915060008201518160000155602082015181600101555050808060010191505062000082565b505050506200043a565b6000604051905090565b600080fd5b600080fd5b600080fd5b6000601f19601f8301169050919050565b7f4e487b7100000000000000000000000000000000000000000000000000000000600052604160045260246000fd5b6200017c8262000131565b810181811067ffffffffffffffff821117156200019e576200019d62000142565b5b80604052505050565b6000620001b362000118565b9050620001c1828262000171565b919050565b600067ffffffffffffffff821115620001e457620001e362000142565b5b602082029050602081019050919050565b600080fd5b6000819050919050565b6200020f81620001fa565b81146200021b57600080fd5b50565b6000815190506200022f8162000204565b92915050565b60006200024c6200024684620001c6565b620001a7565b90508083825260208201905060208402830185811115620002725762000271620001f5565b5b835b818110156200029f57806200028a88826200021e565b84526020840193505060208101905062000274565b5050509392505050565b600082601f830112620002c157620002c06200012c565b5b8151620002d384826020860162000235565b91505092915050565b600073ffffffffffffffffffffffffffffffffffffffff82169050919050565b60006200030982620002dc565b9050919050565b60006200031d82620002fc565b9050919050565b6200032f8162000310565b81146200033b57600080fd5b50565b6000815190506200034f8162000324565b92915050565b6000819050919050565b6200036a8162000355565b81146200037657600080fd5b50565b6000815190506200038a816200035f565b92915050565b600080600060608486031215620003ac57620003ab62000122565b5b600084015167ffffffffffffffff811115620003cd57620003cc62000127565b5b620003db86828701620002a9565b9350506020620003ee868287016200033e565b9250506040620004018682870162000379565b9150509250925092565b7f4e487b7100000000000000000000000000000000000000000000000000000000600052603260045260246000fd5b610906806200044a6000396000f3fe608060405234801561001057600080fd5b50600436106100885760003560e01c8063b384abef1161005b578063b384abef14610118578063bb9c092014610134578063d51af18614610164578063e2ba53f01461019457610088565b8063013cf08b1461008d5780632a8cd29e146100be57806355a373d6146100dc578063609ff1bd146100fa575b600080fd5b6100a760048036038101906100a291906104f4565b6101b2565b6040516100b5929190610549565b60405180910390f35b6100c66101e6565b6040516100d39190610572565b60405180910390f35b6100e46101ec565b6040516100f1919061060c565b60405180910390f35b610102610212565b60405161010f9190610572565b60405180910390f35b610132600480360381019061012d9190610627565b610294565b005b61014e600480360381019061014991906106a5565b61037b565b60405161015b9190610572565b60405180910390f35b61017e600480360381019061017991906106a5565b61046e565b60405161018b9190610572565b60405180910390f35b61019c610486565b6040516101a991906106d2565b60405180910390f35b600081815481106101c257600080fd5b90600052602060002090600202016000915090508060000154908060010154905082565b60025481565b600160009054906101000a900473ffffffffffffffffffffffffffffffffffffffff1681565b6000806000905060005b60008054905081101561028f57816000828154811061023e5761023d6106ed565b5b9060005260206000209060020201600101541115610282576000818154811061026a576102696106ed565b5b90600052602060002090600202016001015491508092505b808060010191505061021c565b505090565b600061029f3361037b565b9050818110156102e4576040517f08c379a00000000000000000000000000000000000000000000000000000000081526004016102db9061079f565b60405180910390fd5b81600360003373ffffffffffffffffffffffffffffffffffffffff1673ffffffffffffffffffffffffffffffffffffffff168152602001908152602001600020600082825461033391906107ee565b92505081905550816000848154811061034f5761034e6106ed565b5b9060005260206000209060020201600101600082825461036f91906107ee565b92505081905550505050565b6000600360008373ffffffffffffffffffffffffffffffffffffffff1673ffffffffffffffffffffffffffffffffffffffff16815260200190815260200160002054600160009054906101000a900473ffffffffffffffffffffffffffffffffffffffff1673ffffffffffffffffffffffffffffffffffffffff16633a46b1a8846002546040518363ffffffff1660e01b815260040161041c929190610831565b602060405180830381865afa158015610439573d6000803e3d6000fd5b505050506040513d601f19601f8201168201806040525081019061045d919061086f565b610467919061089c565b9050919050565b60036020528060005260406000206000915090505481565b600080610491610212565b815481106104a2576104a16106ed565b5b906000526020600020906002020160000154905090565b600080fd5b6000819050919050565b6104d1816104be565b81146104dc57600080fd5b50565b6000813590506104ee816104c8565b92915050565b60006020828403121561050a576105096104b9565b5b6000610518848285016104df565b91505092915050565b6000819050919050565b61053481610521565b82525050565b610543816104be565b82525050565b600060408201905061055e600083018561052b565b61056b602083018461053a565b9392505050565b6000602082019050610587600083018461053a565b92915050565b600073ffffffffffffffffffffffffffffffffffffffff82169050919050565b6000819050919050565b60006105d26105cd6105c88461058d565b6105ad565b61058d565b9050919050565b60006105e4826105b7565b9050919050565b60006105f6826105d9565b9050919050565b610606816105eb565b82525050565b600060208201905061062160008301846105fd565b92915050565b6000806040838503121561063e5761063d6104b9565b5b600061064c858286016104df565b925050602061065d858286016104df565b9150509250929050565b60006106728261058d565b9050919050565b61068281610667565b811461068d57600080fd5b50565b60008135905061069f81610679565b92915050565b6000602082840312156106bb576106ba6104b9565b5b60006106c984828501610690565b91505092915050565b60006020820190506106e7600083018461052b565b92915050565b7f4e487b7100000000000000000000000000000000000000000000000000000000600052603260045260246000fd5b600082825260208201905092915050565b7f546f6b656e697a656442616c6c6f743a20696e73756666696369656e7420766f60008201527f74696e6720706f77657200000000000000000000000000000000000000000000602082015250565b6000610789602a8361071c565b91506107948261072d565b604082019050919050565b600060208201905081810360008301526107b88161077c565b9050919050565b7f4e487b7100000000000000000000000000000000000000000000000000000000600052601160045260246000fd5b60006107f9826104be565b9150610804836104be565b925082820190508082111561081c5761081b6107bf565b5b92915050565b61082b81610667565b82525050565b60006040820190506108466000830185610822565b610853602083018461053a565b9392505050565b600081519050610869816104c8565b92915050565b600060208284031215610885576108846104b9565b5b60006108938482850161085a565b91505092915050565b60006108a7826104be565b91506108b2836104be565b92508282039050818111156108ca576108c96107bf565b5b9291505056fea26469706673582212203969cb7debc06ec25f9db3c1b5ab1bb54b4ba4cb547006cd2fbc6cbf11f715c564736f6c63430008180033",
  "linkReferences": {},
  "deployedLinkReferences": {}
}